:02000000FF2AD5
:10000800FF00030E8301A8000A08A9008A0104085A
:10001800A0008601230AF0007008A3001E28061617
:100028002F2886162F2806172F2886172F280330E3
:10003800A3002F282308043A031913282308053A94
:10004800031915282308063A031917282308073A1D
:10005800031919281B288B22B6229F217421CB2132
:100068000B112008840029088A00280E8300FF0E3F
:040078007F0E0900EE
:10007C0083120313FD01F801700803190034740690
:10008C00FA00FA1BFD09FB01F41F4E28F409F40ACF
:10009C00F01F5228F009F00A70087404FA00FA1BD9
:1000AC0076287408F802F00D700DF80D7408F80736
:1000BC00F00D0630FC00700DF80D74087018F80285
:1000CC00701CF807F00DFC0B6128701CF8077B18EE
:1000DC008428FD1F0034F009F00AF809F80A0034EE
:1000EC00F41F8128F01B7E287008F800F0016F289F
:1000FC00F001F00A0034F009FB0A5728F80A7408DA
:10010C007802031D6F28F801F00AF01F6F28FF34E6
:02011C000800D9
:10011E00831203137008F100F0010830FC0071081F
:10012E00F40C03189E28FC0B9728F10100340310E1
:10013E00A328F40C0318F107F10CF00CFC0BA0280B
:02014E000800A7
:10015000831203133308880087100730FC007D30BA
:10016000FD00FD0BB128FC0BB12887140730FC0003
:100170007D30FD00FD0BBA28FC0BBA2807100800E3
:0E018000293083120313FD00FD0BC428080074
:0E018E008312031327088A0026088200080047
:10019C00831203132A18D52883160110D728831627
:1001AC00011483122B18DD2883168110DF28831687
:1001BC00811483122C18E52883160111E728831665
:0401CC000115080011
:1001D0000729831203132508F4002408F0003E20A9
:1001E0003030F0071B292408F0002508F4008F2088
:1001F0003030F0071B2925082402F0003030F007CA
:100200001B2925082407F0003030F0071B29831232
:10021000031321080A3A0319E92821080B3A0319A4
:10022000F32821080C3A0319FB2821080F3A031977
:0802300001295830F00008001C
:10023800013083120313B300A82087018801080046
:1002480083120313071487142D08B300A820303035
:0E025800B300A8200E30B300A8200714080041
:1002660083120313A401A501A101FF30A200080017
:1002760083120313B2012E08F1000130F000710859
:1002860003194929F00D7010FF3E43297008B1008B
:100296002D08840070080005F10071080130031D67
:1002A6000030F0003008F006031971292F08003CD1
:1002B60003186129C020C020AF0359292D088400E6
:1002C60031080005F10071080130031D0030F0000F
:1002D6003008F00603197129FF30B2003208F00029
:0202E60008000E
:1002E800063083120313AD000330AE000130AF00B7
:1002F8000130B0003B21700803199E298E290D306A
:10030800A2009E29A2019E290E30A2009E290F302C
:10031800A2009E292308043A031983292308053AD1
:10032800031986292308063A031988292308073A56
:0603380003198B290800E7
:10033E00063083120313AD000230AE000130AF0061
:10034E000130B0003B2170080319CA29BA290130C7
:10035E00A200CA290230A200CA290330A200CA296B
:10036E000C30A200CA292308043A0319AE29230827
:10037E00053A0319B1292308063A0319B4292308AB
:08038E00073A0319B729080022
:100396008312031387018801122A3030AD0024210D
:1003A600522A3130AD002421522A3230AD002421A8
:1003B600522A3330AD002421522A3430AD00242194
:1003C600522A3530AD002421522A3630AD00242180
:1003D600522A3730AD002421522A3830AD0024216C
:1003E600522A3930AD002421522A2F30AD00242163
:1003F600522A2A30AD002421522A2D30AD00242164
:10040600522A1C21522A3D30AD002421E8207008D2
:10041600AD002421522A2B30AD002421522A220875
:10042600003A0319D0292208013A0319D4292208CF
:10043600023A0319D8292208033A0319DC292208AB
:10044600043A0319E0292208053A0319E429220887
:10045600063A0319E8292208073A0319EC29220863
:10046600083A0319F0292208093A0319F42922083F
:100476000A3A0319F82922080B3A0319FC2922081B
:100486000C3A0319002A22080D3A0319042A2208F5
:100496000E3A0319062A22080F3A03190E2A80304B
:1004A6002206F0008030003A7002031C6C2A80306D
:1004B600093AF000803022067002031C6C2A2108DB
:1004C600003A031D692A2208A4006B2A2208A50007
:1004D6007E2A80302206F00080300A3A7002031C21
:1004E6007E2A80300F3AF000803022067002031C0C
:1004F6007E2A2208A10022080E3A0319872A22081A
:100506000D3A0319872A882A3321FF30A2000800F2
:10051600063083120313AD00AE010130AF00013087
:10052600B0003B2170080319B52AA52A0730A2009E
:10053600B52A0830A200B52A0930A200B52A0A3029
:10054600A200B52A2308043A0319992A2308053A72
:1005560003199C2A2308063A03199F2A2308073AF7
:060566000319A22A08009F
:10056C00063083120313AD000130AE000130AF0032
:10057C000130B0003B2170080319E12AD12A043064
:10058C00A200E12A0530A200E12A0630A200E12AED
:10059C000B30A200E12A2308043A0319C52A2308C8
:1005AC00053A0319C82A2308063A0319CB2A23084B
:0805BC00073A0319CE2A0800DA
:1005C400831603138112011281118312AA01AB0154
:1005D4000130AC00CE200B118B168B1783128101D6
:0205E40008000D
:1005E600C7208A110A128000840AA60A0319A70ADC
:0805F600F003031DF32A0800C5
:1005FE0083120313A101FF30A2000330A300A40154
:10060E00A5010F30831686008801870183128601AB
:10061E0088018701E222A401A501A101FF30A200F9
:08062E000330A300192B1A2B65
:02400E007A3FF7
:00000001FF
